{
  "contractName": "Integrity",
  "abi": [
    {
      "inputs": [],
      "payable": false,
      "stateMutability": "nonpayable",
      "type": "constructor"
    },
    {
      "constant": true,
      "inputs": [],
      "name": "a_file",
      "outputs": [
        {
          "internalType": "string",
          "name": "",
          "type": "string"
        }
      ],
      "payable": false,
      "stateMutability": "view",
      "type": "function"
    },
    {
      "constant": true,
      "inputs": [],
      "name": "a_hash",
      "outputs": [
        {
          "internalType": "string",
          "name": "",
          "type": "string"
        }
      ],
      "payable": false,
      "stateMutability": "view",
      "type": "function"
    },
    {
      "constant": true,
      "inputs": [],
      "name": "a_name",
      "outputs": [
        {
          "internalType": "string",
          "name": "",
          "type": "string"
        }
      ],
      "payable": false,
      "stateMutability": "view",
      "type": "function"
    },
    {
      "constant": true,
      "inputs": [],
      "name": "a_updater",
      "outputs": [
        {
          "internalType": "address",
          "name": "",
          "type": "address"
        }
      ],
      "payable": false,
      "stateMutability": "view",
      "type": "function"
    },
    {
      "constant": false,
      "inputs": [
        {
          "internalType": "string",
          "name": "newhash",
          "type": "string"
        },
        {
          "internalType": "string",
          "name": "file",
          "type": "string"
        },
        {
          "internalType": "string",
          "name": "name",
          "type": "string"
        }
      ],
      "name": "hash_update",
      "outputs": [],
      "payable": false,
      "stateMutability": "nonpayable",
      "type": "function"
    },
    {
      "constant": true,
      "inputs": [],
      "name": "hash_verify",
      "outputs": [
        {
          "internalType": "string",
          "name": "",
          "type": "string"
        }
      ],
      "payable": false,
      "stateMutability": "view",
      "type": "function"
    },
    {
      "constant": true,
      "inputs": [],
      "name": "updater",
      "outputs": [
        {
          "internalType": "address",
          "name": "",
          "type": "address"
        }
      ],
      "payable": false,
      "stateMutability": "view",
      "type": "function"
    },
    {
      "constant": true,
      "inputs": [],
      "name": "filer",
      "outputs": [
        {
          "internalType": "string",
          "name": "",
          "type": "string"
        }
      ],
      "payable": false,
      "stateMutability": "view",
      "type": "function"
    },
    {
      "constant": true,
      "inputs": [],
      "name": "namer",
      "outputs": [
        {
          "internalType": "string",
          "name": "",
          "type": "string"
        }
      ],
      "payable": false,
      "stateMutability": "view",
      "type": "function"
    }
  ],
  "bytecode": "0x608060405234801561001057600080fd5b5060405180608001604052806058815260200162000d826058913960009080519060200190610040929190610131565b50426003819055506040518060400160405280600d81526020017f416c626572746f204c6f70657a0000000000000000000000000000000000000081525060059080519060200190610093929190610131565b506040518060400160405280600b81526020017f707275656261312e747874000000000000000000000000000000000000000000815250600490805190602001906100df929190610131565b506040518060400160405280600a81526020017f30783132313231323132000000000000000000000000000000000000000000008152506001908051906020019061012b929190610131565b506101d6565b828054600181600116156101000203166002900490600052602060002090601f016020900481019282601f1061017257805160ff19168380011785556101a0565b828001600101855582156101a0579182015b8281111561019f578251825591602001919060010190610184565b5b5090506101ad91906101b1565b5090565b6101d391905b808211156101cf5760008160009055506001016101b7565b5090565b90565b610b9c80620001e66000396000f3fe608060405234801561001057600080fd5b50600436106100935760003560e01c80634712ef59116100665780634712ef591461026b57806360f98f85146102ee578063c6dbd7ae146104d7578063d036cea81461055a578063df034cd0146105dd57610093565b8063022872f8146100985780630fc892db1461011b578063178b27f614610165578063236fa0d3146101e8575b600080fd5b6100a0610627565b6040518080602001828103825283818151815260200191508051906020019080838360005b838110156100e05780820151818401526020810190506100c5565b50505050905090810190601f16801561010d5780820380516001836020036101000a031916815260200191505b509250505060405180910390f35b6101236106c5565b604051808273ffffffffffffffffffffffffffffffffffffffff1673ffffffffffffffffffffffffffffffffffffffff16815260200191505060405180910390f35b61016d6106eb565b6040518080602001828103825283818151815260200191508051906020019080838360005b838110156101ad578082015181840152602081019050610192565b50505050905090810190601f1680156101da5780820380516001836020036101000a031916815260200191505b509250505060405180910390f35b6101f0610789565b6040518080602001828103825283818151815260200191508051906020019080838360005b83811015610230578082015181840152602081019050610215565b50505050905090810190601f16801561025d5780820380516001836020036101000a031916815260200191505b509250505060405180910390f35b610273610827565b6040518080602001828103825283818151815260200191508051906020019080838360005b838110156102b3578082015181840152602081019050610298565b50505050905090810190601f1680156102e05780820380516001836020036101000a031916815260200191505b509250505060405180910390f35b6104d56004803603606081101561030457600080fd5b810190808035906020019064010000000081111561032157600080fd5b82018360208201111561033357600080fd5b8035906020019184600183028401116401000000008311171561035557600080fd5b91908080601f016020809104026020016040519081016040528093929190818152602001838380828437600081840152601f19601f820116905080830192505050505050509192919290803590602001906401000000008111156103b857600080fd5b8201836020820111156103ca57600080fd5b803590602001918460018302840111640100000000831117156103ec57600080fd5b91908080601f016020809104026020016040519081016040528093929190818152602001838380828437600081840152601f19601f8201169050808301925050505050505091929192908035906020019064010000000081111561044f57600080fd5b82018360208201111561046157600080fd5b8035906020019184600183028401116401000000008311171561048357600080fd5b91908080601f016020809104026020016040519081016040528093929190818152602001838380828437600081840152601f19601f8201169050808301925050505050505091929192905050506108c9565b005b6104df610954565b6040518080602001828103825283818151815260200191508051906020019080838360005b8381101561051f578082015181840152602081019050610504565b50505050905090810190601f16801561054c5780820380516001836020036101000a031916815260200191505b509250505060405180910390f35b6105626109f6565b6040518080602001828103825283818151815260200191508051906020019080838360005b838110156105a2578082015181840152602081019050610587565b50505050905090810190601f1680156105cf5780820380516001836020036101000a031916815260200191505b509250505060405180910390f35b6105e5610a98565b604051808273ffffffffffffffffffffffffffffffffffffffff1673ffffffffffffffffffffffffffffffffffffffff16815260200191505060405180910390f35b60048054600181600116156101000203166002900480601f0160208091040260200160405190810160405280929190818152602001828054600181600116156101000203166002900480156106bd5780601f10610692576101008083540402835291602001916106bd565b820191906000526020600020905b8154815290600101906020018083116106a057829003601f168201915b505050505081565b600260009054906101000a900473ffffffffffffffffffffffffffffffffffffffff1681565b60058054600181600116156101000203166002900480601f0160208091040260200160405190810160405280929190818152602001828054600181600116156101000203166002900480156107815780601f1061075657610100808354040283529160200191610781565b820191906000526020600020905b81548152906001019060200180831161076457829003601f168201915b505050505081565b60018054600181600116156101000203166002900480601f01602080910402602001604051908101604052809291908181526020018280546001816001161561010002031660029004801561081f5780601f106107f45761010080835404028352916020019161081f565b820191906000526020600020905b81548152906001019060200180831161080257829003601f168201915b505050505081565b606060018054600181600116156101000203166002900480601f0160208091040260200160405190810160405280929190818152602001828054600181600116156101000203166002900480156108bf5780601f10610894576101008083540402835291602001916108bf565b820191906000526020600020905b8154815290600101906020018083116108a257829003601f168201915b5050505050905090565b33600260006101000a81548173ffffffffffffffffffffffffffffffffffffffff021916908373ffffffffffffffffffffffffffffffffffffffff1602179055508060059080519060200190610920929190610ac2565b508160049080519060200190610937929190610ac2565b50826001908051906020019061094e929190610ac2565b50505050565b606060048054600181600116156101000203166002900480601f0160208091040260200160405190810160405280929190818152602001828054600181600116156101000203166002900480156109ec5780601f106109c1576101008083540402835291602001916109ec565b820191906000526020600020905b8154815290600101906020018083116109cf57829003601f168201915b5050505050905090565b606060058054600181600116156101000203166002900480601f016020809104026020016040519081016040528092919081815260200182805460018160011615610100020316600290048015610a8e5780601f10610a6357610100808354040283529160200191610a8e565b820191906000526020600020905b815481529060010190602001808311610a7157829003601f168201915b5050505050905090565b6000600260009054906101000a900473ffffffffffffffffffffffffffffffffffffffff16905090565b828054600181600116156101000203166002900490600052602060002090601f016020900481019282601f10610b0357805160ff1916838001178555610b31565b82800160010185558215610b31579182015b82811115610b30578251825591602001919060010190610b15565b5b509050610b3e9190610b42565b5090565b610b6491905b80821115610b60576000816000905550600101610b48565b5090565b9056fea265627a7a7231582034b69053e5520998768122ce7cd5aa98ae1c9f1e41d0ae80b8b27cf8c5ef64a964736f6c63430005110032506f72206661766f7220696e74726f6475636520656c2068617368206172726f6a61646f20706f7220656c20616c7461206f206d6f64696669636163696f6e2064656c206172636869766f20717565206361726761737465",
  "source": "// Version de solidity del Smart Contract\n// SPDX-License-Identifier: MIT\n\npragma solidity >=0.4.22 <0.9.0;\n\n// Informacion del Smart Contract\n// Nombre: Integridad\n// Logica: Permite escribir inicialmente en la blockchain un nuevo hash cada que un archivo es subido/eliminado/modificado con el hash del activo\n\n// Declaracion del Smart Contract - Auction\ncontract Integrity {\n\n    // ----------- Variables (datos) -----------\n    // Información del estado del archivo\n    string private description;\n    string public a_hash;\n    address public a_updater;\n    uint256 private createdTime;\n    string public a_file;\n    string public a_name;\n\n    // ----------- Constructor -----------\n    // Uso: Inicializa el Smart Contract - Archivo inicial de carga\n    constructor() public {\n        \n        // Inicializo el valor a las variables (datos)\n        description = \"Por favor introduce el hash arrojado por el alta o modificacion del archivo que cargaste\";\n        createdTime = block.timestamp;\n        a_name = \"Alberto Lopez\";\n        a_file = \"prueba1.txt\";\n        a_hash = \"0x12121212\";\n        \n    }\n    \n    // ------------ Funciones que modifican datos (set) ------------\n\n    // Funcion\n    // Nombre: hash_update\n    // Uso:    Permite colocar el valor del hash derivado de alguna modificación a algun archivo para validar su integridad y dejarlo como rastro dentro de la blockchain\n\n    function hash_update(string memory newhash, string memory file, string memory name) public {\n\n//                // Actualiza el hash\n                a_updater = msg.sender;\n                a_name = name;\n                a_file = file;\n                a_hash = newhash;\n                \n    }\n\n   \n    // ------------ Funciones que consultan datos (get) ------------\n\n    // Funcion\n    // Nombre: hash_verify\n    // Logica: Consulta el valor del hash\n    function hash_verify() public view returns (string memory){\n        return (a_hash);\n    }\n\n    // Funcion\n    // Nombre: updater\n    // Logica: Consulta quien fue quien actualizo el hash\n    function updater() public view returns (address){\n        return (a_updater);\n    }\n    \n\n        // Funcion\n    // Nombre: file\n    // Logica: Consulta cual fue el archivo actualizado\n    function filer() public view returns (string memory){\n        return (a_file);\n    }\n\n        // Funcion\n    // Nombre: name\n    // Logica: Consulta quien fue quien actualizo el hash\n    function namer() public view returns (string memory){\n        return (a_name);\n    }\n}\n",
  "sourcePath": "/home/dapps/dapps1/contracts/Integrity.sol",
  "compiler": {
    "name": "solc",
    "version": "0.5.17+commit.d19bba13.Emscripten.clang"
  },
  "schemaVersion": "3.4.16",
  "updatedAt": "2024-04-17T03:45:35.781Z",
  "networkType": "ethereum",
  "devdoc": {
    "methods": {}
  },
  "userdoc": {
    "methods": {}
  }
}